:0D29AC00810D00C18AC18CC189C10BC10819
:102CD300E2FB08E2FA08E2F922E2FE18E2FDEEF274
:042CE300ED08F222E4
:1028A400E59620E7FB759601759708E59620E7FB0A
:1028B400759607759701E59620E7FB759609E4F58B
:1028C40097E59620E7FB75960B75970575D7E0E5B8
:1028D4009620E7FB75960F759780E59620E7FB75C4
:0628E40096017597012228
:030043000221781F
:10217800C0E0C0F0C083C082C0D075D000C000C02D
:0D21880001C002C003C004C005C006C007AE
:10219500E59620E7FB759686E59620E7FB7827E52B
:1021A50097F2E59620E7FB759682E59620E7FB78A2
:1021B50028E597F2E59620E7FB759684E59620E7F6
:1021C500FB7829E597F27827E230E2051229E7D274
:1021D500027829E230E102D20B7828E2FF30E102F1
:1021E500D209EF30E005121649C2027827E230E045
:1021F50005120018D2027827E230E10512000EC25E
:0122050002D6
:10220600D007D006D005D004D003D002D001D0002C
:0B221600D0D0D082D083D0F0D0E032D6
:1029E700E59620E7FB759607759703E59620E7FBC5
:1029F700759609759702E59620E7FB75960B75970F
:102A070005E59620E7FB759601759701780E740228
:092A1700F2E418F2D20AD20C22FA
:10164900E59620E7FB75960EE4F597E59620E7FB0E
:10165900759691E59620E7FB782AE597F2E2FF3047
:10166900E20FE59620E7FB759611E4F597780DF200
:1016790022EF30E40FE59620E7FB75961175978008
:10168900E4780DF2780DE2707C782AE230E0767B1E
:10169900FE7A0079007D087F20122A207803122C17
:1016A900DC7805122CDC7807122CDCC20D7800E2FC
:1016B900546024E06009242070081227CA800312AC
:1016C9002CE7E59620E7FB75960EE4F597300D0DAE
:1016D900E59620E7FB7596117597408010E59620F1
:1016E900E7FB759611759720780D7404F27806E278
:1016F900FE08E2FF7809E2B5070818E2B50603D348
:101709008001C39208780DE26402600302179E7893
:101719002AE230E10302179EE59620E7FB759691D0
:10172900E59620E7FB782AE597F2E220E46720E0D6
:1017390064087402F2C37809E2944018E294004004
:101749002F780A122CD37D407F20122A8C780CE244
:101759002440F218E23400F27809E224C0F218E2D7
:1017690034FFF230082208E2700218E2701A800E83
:10177900780808E2FD08122CD37F20122A8C782BD6
:10178900E24408F2E4780DF2E59620E7FB7596113C
:05179900782BE2F5973A
:01179E002228
:0A2A20007856EBF208EAF208E9F23A
:102A2A00E59620E7FBEF44C0F596E4FFEFC39D501F
:102A3A0017E59620E7FB7856122CD38F8275830010
:0B2A4A00E59712077F0F80E4E4F5968B
:012A5500225E
:0A2A8C007834EBF208EAF208E9F2F0
:102A9600E59620E7FBEF543FF596E4FFEFC39D5024
:102AA60017E59620E7FB7834122CD38F82758300C6
:082AB600120740F5970F80E4C0
:012ABE0022F5
:080003007833E204F2E2C322AB
:1011170053D9BFE4F5EF122C4A122D1C1228A41242
:101127002C27E49003F3F0A2A733A3F0E0600FD3DA
:10113700905B8474019394ACE49394264003122249
:10114700C443E602D2AF9003F4E070047F0280024A
:101157007F01EF4480FF1226E07F0112246A120C00
:10116700BF122D0C400302123C9003F47401F0E40B
:10117700A3F0A3F07833F21212E7500A9003F4E0D9
:1011870004F0E47833F2120003942840EA9003F461
:10119700E0D394064002803C9003F4E0FF1226E07F
:1011A700E47833F21212E7500B9003F5E004F0787D
:1011B70033743CF2120003946440E99003F5E06055
:1011C70013D39409500E9003F4E0B4010EA3E0D3B7
:1011D700940240077F431226E0805A9003F5E0FF10
:1011E7001226E09003F4E06406703E7833F27F3213
:1011F700122CFF122D0C500B9003F6E004F07833FD
:10120700743CF2120003946440E49003F6E0600536
:10121700D39410400C7F431226E0E49003F4F0804F
:10122700089003F6E0FF1226E09003F4E0D3940061
:1012370040031218DAD37825E2940018E2940040AC
:101247000C7F01121B3F5005E4FF121B3F200C438C
:101257007F01121B3F503C1009028037E4FF121B2D
:101267003FE5E654027833F253E6FDE59620E7FBC7
:1012770075960E7597017B007A0079237D407F2153
:10128700122A8CE59620E7FB75961175970178333E
:10129700E242E6E4FF1228EA9003F3E0FF20E703C7
:1012A700021165547F24ED600F146011146013243C
:1012B7000370251220098020122BFD801B121D644C
:1012C70080169003F4E0D394064005122B21800882
:1012D7007F011226E01218DAE49003F3F002116599
:0912E7007F32122CFF122D0C22A3
:0428EA007854EFF23D
:1028EE00200A3C100B0122E5E654027855F253E61D
:1028FE00FDE59620E7FB75960E7597017B007A0035
:10290E0079637D407F21122A20E59620E7FB75969C
:0F291E0014E4F5977855E242E618E2FF12179F8E
:01292D002287
:0100180022C5
:05000E007F0102246ADD
:042D2A0001000000A4
:102BA700780A74FFF208742DF208742CF222780D5B
:102BB7007402F27808E4F20822780A74FFF2082215
:0B2BC700C37805E2940118E29400229C
:1027CA007801E2B40B0050409027D9F82828730208
:1027DA0027FA0227FD0228120228000228120228DC
:1027EA000302280602281202280902280C02280FCE
:1027FA000224EE02273002277D02292E021C5202F1
:09280A00281302268E122ABF22B7
:1024EE007803E2700218E2706E7807E264027002FE
:1024FE0018E270637800E2247F60121460222402D6
:10250E0070557805E2700218E2704C800C780EE27D
:10251E0064047043122BC7503E122BA7D20D803786
:10252E00780EE2640470307804E2702BC20E08E27A
:10253E00247F60082480700AA20A8002A20C920EE8
:10254E00D20D780A74FF300E0BF208742DF2087457
:10255E002AF28003122BAB300D06122BB57402F249
:01256E00224A
:1025D400EF247F600B2480700EED24FF920A8009A3
:1025E400ED24FF920C8002C322E59620E7FB75964A
:1025F4000EEF547FF597EF30E715ED70047E4880B9
:10260400027E58E59620E7FB7596118E978013EDB0
:1026140070047E9080027EB0E59620E7FB759614E8
:0F2624008E97EFB48102D209EFB40102C20BD33B
:012633002284
:10273000780EE2640470457807E2700218E2703C9B
:102740007800E224FE601B240270317803E2640109
:10275000700218E270267805E2700218E2701DD24D
:102760000D227803E2700218E270117804E2700C16
:0D27700008E2FFE4FD1225D45002D20D2234
:10277D00780EE2640470457807E2700218E2703C4E
:10278D007800E224FE601B240270317803E26401BC
:10279D00700218E270267805E2700218E2701DD200
:1027AD000D227803E2700218E270117804E2700CC9
:0D27BD0008E2FF7D011225D45002D20D224A
:10292E007800E270397805E2700218E270307807AC
:10293E00E2700218E270277802E2702208E220E7C5
:10294E001D6014E59620E7FBE4F5967803E2F59713
:0F295E00780E7403F28005780E7402F2D20D2207
:101C52007800E264806003021CF87802E224FE60ED
:101C62002F14605124026003021D457803E26003D1
:101C7200021D457805E2700218E26003021D45125A
:101C82002BC0741AF2087411122BB97412021D427D
:101C92007803E26003021D457805E2700218E260F3
:101CA20003021D45122BC0741AF208743D122BB99F
:101CB2007429021D42901B3EE493FF7803E2FEC3A7
:101CC2009F4003021D4575F002EEA42434F582E51F
:101CD200F0341BF583E493FE740193AA06F97BFFAB
:101CE200780AEBF208EAF208E9F2120727FF78080D
:101CF200E4F208EF804A7800E2648170467805E2F7
:101D0200700218E2703D7802E224DE60180470333B
:101D12007803E2702E122BC0741AF208744F122B41
:101D2200B97409801B7803E27019122BC0741AF27D
:101D3200087423F2901A3CE493FF7808E4F208EF67
:101D4200F2D20D300D1B780D7402F27806E2FE0815
:101D5200E2FFD37809E29F18E29E4005EEF208EF17
:021D6200F2226B
:102813007800E2648070397803E2700218E2703065
:102823007805E2700218E270277807E2640170020B
:1028330018E2701C780EE2FFB4040C122BC0742D46
:10284300F208742AF2D20DEFB40305122BA7D20DAE
:09285300300D05122BB504F22230
:10268E007800E2704C7805E2700218E27043780729
:10269E00E2700218E2703A7803E214600F047031AF
:1026AE00780E7403F2D20AD20CD20D22780E740474
:1026BE00F2E59620E7FB75960E759701E59620E7F5
:1026CE00FB759612759704C20AC20CD209C20BD2C0
:0226DE000D22CB
:102ABF00780EE26404702A7800E264817023780350
:102ACF00E2700218E2701A122BC750157807E264F1
:102ADF0001700218E2700A122BA7122BB504F2D262
:022AEF000D22B6
:101A11001201100100000040C4106C870001010296
:101A210003010600FF0901A101150026FF00750849
:101A310095400901810209019102C0190902290099
:101A4100010104C032090400000203000000092161
:101A5100110100012219000705810340000A070551
:101A6100010340000A04030904260355004700202E
:101A71000044006500760065006C006F0070006D29
:101A81000065006E00740020004C00610062005887
:101A91000379006100550073006200490052002083
:101AA10000560033003A00490052002000740072D1
:101AB1000061006E007300630065006900760065D7
:101AC1000072002000770069007400680020007037
:101AD100006F0077006500720020007300770069D5
:101AE100007400630068000A0330003000310032E6
:101AF1000042034900520020007400720061006E30
:101B010000730063006500690076006500720020C3
:101B1100007700690074006800200070006F007792
:101B21000065007200200073007700690074006393
:0E1B31000068001A661A6A1A901AE81AF2057D
:102CE7007805E2700218E270097801E214700312A5
:032CF700285C2234
:10285C007800E2B4A1237803E2701E18E214701918
:10286C00E47823F6780AF2087400F2087423F278FC
:10287C0008E4F2087440F2D20D300D1B780D74028E
:10288C00F27806E2FE08E2FFD37809E29F18E29E96
:08289C004005EEF208EFF22204
:1029B900010D00C102010E00010CFF8121FF8119E7
:0B29C90000812300C104010B80C180CD
:1012F000781EE275F002A42473F582E5F03402F55D
:1013000083E0FCA3E0FDE412066D7BE47AC47988F7
:10131000784212050A1206A6781EE275F002A4248D
:1013200073F582E5F03402F58322900275E0FEA3A6
:10133000E0FF7C00122221EFD3940A227838E27F6A
:101340000025E0FEEF2274612FF582E43402F5837C
:10135000E4F0746A2FF582E43402F5832275F0021A
:10136000120936E493FE740193FF7838EEF2FC081C
:10137000EFF2FD7836E2FE08E2FF122221EFC3947D
:1013800016223EAF82FEE47B017A027973784FF237
:101390000822781EE2FF7846E2FED39F227849E0D9
:1013A000FEA3E0FFEEF2FE08EFF22274632FF8E6F0
:1013B0007856F27858E204F2E22463F8E67857F2BD
:1013C000D3E2940018E29400227834E22461F5829A
:1013D000E43402F58322781BE204F2E2C394C022D3
:1013E000FFEE547FFCAD07E412066D7B677A6279ED
:1013F00070222402F582745A3EF58322900273E033
:10140000FEA3E0FF222482F582745B3EF583E49321
:10141000227847E2FE08E2FF22780EE65403240F0A
:10142000F62208E224FFF218E234FFF2223EAF82F5
:10143000FE7BFE784FE4F20804F222781EE2FF7889
:101440001BE2222483F582745B227838E25480FE0A
:101450007836E25480FCE422900275E0FEA3E0FFBF
:10146000222400F582745A2275F00202093678347B
:10147000E2FFC3940922D3780AE6940018E69400A8
:1014800022E493FE740193FF22E4F0A3F0E204F25D
:10149000227819E2D394002224C2F582745A22E001
:0614A000FEA3E0FF08229C
:10222100AB05AA048F828E83E583547FF583EA543C
:102231007FFAC3E5829402E58394004008EB94029F
:10224100EA94005004E4FB8074D3E582948FE58323
:1022510094025008EB948FEA94024014E583C3136F
:10226100F583E58213F582EAC313FAEB13FB80D9F8
:10227100E58245837005F583758201EB4A7003FAA7
:102281007B01D3E5829BE5839A40117C007D64AF9D
:1022910003AE021207A1AD82AC83800FAE83AF8281
:1022A1007C007D641207A1AD03AC021207B3AA063C
:1022B100AB07D3EB9464EA940040027B64C374647B
:0322C1009BFF225E
:102AF100C2DE780CE66402701FF5D8EFB4470575A5
:102B0100D908800375D90275DA46EFB4470575FC1B
:102B1100358005EF25E0F5FCEF25E0F404F58D2285
:10246A00EFB40207780CE664026078C28E780CA694
:10247A0007E4FF121346E4F00FEFB409F6E47820FC
:10248A00F218F2780CE6B40506E4781BF2800578B7
:10249A001B74BFF2781BE2FF7814F2781EEFF2D2B7
:1024AA0001D2037E017F807D007B017A027973125B
:1024BA000942E4781CF208F2438920758B01538E95
:1024CA00F7438E01780CE6B402107813E2FF122A61
:1024DA00F17F857E0D122A5680057F4E122AF1D28F
:0324EA008ED2ABE4
:0124ED0022CC
:102C2700C28C538EFB438E01E47809F608F67816BA
:102C3700F208F2782404F20874F4F2438901D28C82
:032C4700D2A922ED
:0F2D0C00300707200004D200D322A2079200C391
:012D1B002295
:03000B0002096E79
:10096E00C0E0C0F0C083C082C0D075D000C000C04F
:10097E0001C002C003C004C005C006C007C28C750A
:10098E008CD1758A1FD28C780FE6D3940040011655
:10099E0020A7127815E2D39400401BE214F2E27005
:1009AE0015C20780117815E2C394145009E204F2BF
:1009BE00E2B41402D2077808E6C3940A5004060281
:1009CE000C7C78087600121476401608E61618701D
:1009DE0001161214764006C206C2A28004D206D2B6
:1009EE00A2905B8AE4937003020ABB121491400B2F
:1009FE00E214F2E27005782174FFF2782274FFF2AD
:100A0E00E59054F02490601E24C0601324E0600929
:100A1E0024F0701A781AE28012781AE204800C78A8
:100A2E001AE224028005781AE224037822F2782250
:100A3E00E2FFF4602918E2FEEF6E601D08E218F284
:100A4E00FF905B8CE47819120CB4700312141978B1
:100A5E000CE6B403047604D20478237405F27822EB
:100A6E00E2B4FF1508E2D39400400EE214F2E270F5
:100A7E000812149140037401F27818E225E0FFF297
:100A8E00781AE22404F2EF640160197818E2FF6428
:100A9E00026011EF6404600CEF640860077401F2E9
:100AAE00781AE4F27818E2F4F590020BD41214914D
:100ABE00400DE214F2E27007905B8B937821F29076
:100ACE005B8BE493F4FF4590FE7821E26E70030297
:100ADE000B63E5904FF2781A74FFF27821E22481CD
:100AEE00604B24C0604024E0603524F0602A24F876
:100AFE00601F24FC601424FE6009147035781AE41B
:100B0E00F2802F781A7401F28028781A7402F2801B
:100B1E0021781A7403F2801A781A7404F28013780A
:100B2E001A7405F2800C781A7406F28005781A741D
:100B3E0007F2781AE2FFF46016905B8CE418120C40
:100B4E00B47003121419780CE6640370798054782B
:100B5E0019E4F28071905B8BE493F455907822F255
:100B6E00E2FF7826E26F605E781A7410F2781874DD
:100B7E0001F27818E2FF7822E2FE5F65E0602AEF6C
:100B8E00F4FDEE5DFEF2EF5E4EFFF27818E25F7856
:100B9E001A6005E204FF8002E2FF121F35780CE6B0
:100BAE00B403237604D204801D7818E2FFB48008C3
:100BBE007822E27826F2800EEF25E07818F2781A85
:100BCE00E22402F280AC780EE6D39400401516E6CD
:100BDE00FF5403D394024003D38001C39206EF70F7
:100BEE0002D206D378171213C1403C121422905B26
:100BFE0086121481905B84E493FC740193FD2FFFA5
:100C0E00EC3EFEE2FA08E2FBB5070BEAB506077802
:100C1E0009A60408A605EB4A700D905B8812148293
:100C2E007809A60608A60730022F78247401F20868
:100C3E0074F4F2780DE614600E047018780BE6D397
:100C4E0094004010168027780BE6C394FF500306DD
:100C5E00801C8000780D068015D378251213C140B4
:100C6E000D12142208E2700218E27002D206A206D9
:100C7E0092A0300205780EE66011905B8DE493B47D
:100C8E000107A206B392A18002D2A1D007D006D04E
:100C9E0005D004D003D002D001D000D0D0D082D065
:100CAE0083D0F0D0E03293F2121F35780AE6184660
:010CBE002213
:052CFA007FFA122CFF1F
:0D2CFF00780FA607780FE6D3940050F82256
:102CA500AE07AF061EEFD39400400B122CFA122C80
:072CB500FF122CFF80EC224E
:03001B000214A626
:1014A600C0E0C0F0C083C082C0D075D000C000C00C
:1014B60001C002C003C004C005C006C007780CE620
:1014C600FE24FE60080424FC50730215ECD3781D3C
:1014D6001213C140061214220215EC75D80075F9D4
:1014E600FF75FAFF75E240C28012143BB5070C780F
:1014F6000C76017F4E122AF10215EC121419781B94
:10150600E2FF12131BE0FCA3E0FD08ECF2FC08ED81
:10151600F275F002EF12131EE4F0A3F0EC30E70EC2
:1015260018E2547FF2D2DE75E241D2058002C2058E
:101536001213D650030215ECE4F20215EC75E240E4
:10154600C280A2819205A205300301B35059780AE0
:10155600E618467003121419300105EE6401703B5B
:10156600780CE6FF64046033781E1213D84002E458
:10157600F2200309781CE24480F208E2F2781CE2C9
:10158600FC08E2FD08E2FE12131BECF0A3EDF0EFFF
:10159600B40308EEB4BF04780C7604C201781CE4E8
:1015A600F208F2A2059203C3781DE294FF18E294B2
:1015B6007F500A08E22401F218E23400F2781CE2B5
:1015C600FC08E2FD1213E778461205FB600250168E
:1015D600200102D201780CE6B4030B781EE264BF48
:1015E6006004780C760430023F780EE6703A781084
:1015F60006E6D394404001067810E6D39480400274
:1016060006067810E6D394C44004740426F67910CE
:10161600E7D3780B9640028001D392A0905B8DE4CD
:1016260093B40104A2A092A1D007D006D005D0049D
:10163600D003D002D001D000D0D0D082D083D0F059
:03164600D0E032BF
:10296D00C2AF781EE2FE781BE2FDB50604D2AFC3FE
:10297D0022EDD39E781BE2400DFE781EE29EFEC333
:10298D0074BF9EFF800DF404FF781EE22FFFC37409
:0E299D00FF9FFFD2AFEFC3940250028001C330
:0129AB002209
:102A5600AB07AA0612296D5002C322EA30E71054CA
:102A66007FFED3EB9402EE940640047A867B02AF97
:102A760003121318EAF0A3EFF0C2AF1213D8400204
:062A8600E4F2D2AFD322FE
:100CBF00783A74FFF2780CE664016003020F14783F
:100CCF001EE2FF7814E26F7003020F1478141213F0
:100CDF00D84002E4F2781412131A783612139F12C6
:100CEF0013E078461205FB60025013E47834F212D9
:100CFF00146E500A121346E4F0E204F280F1E47825
:100D0F0034F212146E4003020E4BEF25E008F2127C
:100D1F00133F2401F582745A3EF583E493F4700374
:100D2F00020E4374022F1213F4C083C0821213C930
:100D3F00E0D082D08312135D506912144A7002EC16
:100D4F006E70607834E2FD1213CCE004F0081213D9
:100D5F003E1214613EF583E4937A00B401047B6084
:100D6F0080027BC074612D1213CEE0C39BEA6480B6
:100D7F00F874809840051213C9E4F074022F12130F
:100D8F00F4C083C0821213C9E0D082D083121468DA
:100D9F00740193B4FF12E493B4FF0D08E2783AF2B2
:100DAF00020E4B1213C9E4F0783512133E12146180
:100DBF003EF583E4936401707B1214983EF583C073
:100DCF0083C08218E2246A121355E0D082D08312B6
:100DDF00135D505612144A7002EC6E704D7834E267
:100DEF00FF246A121355E004121351E0C3946040BC
:100DFF0008E2246A121355E4F07835E2FD12133F2E
:100E0F001214983EF583C083C08218E2246A12132D
:100E1F0055E0D082D083121468740193B4FF15E4A7
:100E2F0093B4FF10783AEDF280127834E2246A120C
:100E3F001355E4F07834E204F2020D11783AE2FF30
:100E4F00F47003020F14EFB4100A780976000876D5
:100E5F0050020F01783512133E12140530E00330A3
:100E6F0001FD783512133E1214433EF583E4937857
:100E7F003BF27813744EF27835E204F2783BE2D30A
:100E8F009400406EE214F2E47834F27834E2F460C5
:100E9F00580812133E1213F218E2FD04F275F00215
:100EAF00ED120936E493FD7401937836CDF208ED17
:100EBF00F2E2B4FF2118E2B4FF1CEF1213F2783400
:100ECF00E2121468E493FF7401937836CFF208EFBF
:100EDF00F2783474FFF27F0212246A7836E2FE0849
:100EEF00E2FF122A5640A480F2780CE66402708C5E
:100EFF0080F7E47834F212146E500A121346E4F0BD
:050F0F00E204F280F194
:010F140022BA
:102C6C0012143BB50702C3221213D64002E4F278C9
:102C7C001B12131AE0FFA3E0CF8FF012081ED32211
:101B3F00EF640170227820E26002D322780CE6B4C1
:101B4F00010812143B6F6002D322120013EFD394DB
:101B5F00004002D322C322E47823F67820E224FC4B
:101B6F00701F78237604780FE27824F67810E278E5
:101B7F0025F67811E27826F67812E27827F6021C1D
:101B8F0038780CE664016003021C387BFE7A00791A
:101B9F0034122C6C921030104B7823760108760D8E
:101BAF0078367402F27834E2FF7836E2FE04F2748B
:101BBF00232EF8A6077835E2FF08E22423F8A607BC
:101BCF003010147BFE7A007934122C6C9210201096
:101BDF0006E47834F208F27836E204F2E2C3944075
:101BEF0040C38045121C4630103F78237602E4082C
:101BFF00F678367402F27836E2FFC39440502A30FA
:101C0F00101808E2FE74232FF8A606121C462010A7
:101C1F00117836E2147824F680087836E22423F817
:101C2F00E4F67836E204F280CDE47820F27823E609
:061C3F006003D38001C325
:0D1C4500227BFE7A007937122CBC9210220F
:10179F00E47820F27863E624FE700302187A14705E
:1017AF00030218A51470030218CD24036003021856
:1017BF00D97864E67813F2C394325003744EF2EF83
:1017CF00602878587402F27858E2FFC394404003BF
:1017DF000218D91213AB50030218D9E2FE08E2FF28
:1017EF00122A567858E204F280DD7865E664897033
:1017FF004F08E624EE24FC500C2405701F9003F3D1
:10180F00E04480F0227E007F067D007B017A037921
:10181F00F31209427866E69003F3F0229003F8E0A2
:10182F00FFC3940440030218D97866E6FE74F42FC0
:10183F00F582E43403F583EEF09003F8E004F02230
:10184F0078587402F27858E2FFC39440507C121318
:10185F00AB40777F0212246A7856E2FE08E2FF124D
:10186F002A5650F47858E204F280DAE47858F27885
:10187F0058E2C3786496505212001E50077F01122F
:10188F002CFF80F47858E22465F8E6FF122B7B7862
:10189F0058E204F280D97864E6780FF27865E6783A
:1018AF0010F27866E67811F27867E67812F2780F20
:1018BF00E2FC08E2FD08E2FE08E2FF0220C87863BE
:0A18CF00E67820F27864E6781FF254
:0118D90022EC
:0226E000AE0743
:1026E200EE5480D394004003D38001C39213EE547E
:1026F2003FFE780EE6D3940050F8EE25E0FED212AB
:10270200A21292067FC8801EEED39400401D1EB214
:1027120012A2129206EED3940040ED7FC8122CFF53
:0D2722003013E5122CFA122CFF80DDD206D8
:01272F002287
:0D0086007841EBF208EAF208E9F208EDF229
:10009300E4784DF2C204ED70047F0380027F051201
:1000A300246AC213C212784674C8F27846E2D39423
:1000B30000403C780CE6640360057844E260307FDE
:1000C30032122CFF7846E214F27844E260DD7F01BD
:1000D3001228EA12143B6F60D2D2127F107E0F12E5
:1000E3002A56781EE2781BF278467406F280BC78B2
:1000F30046E27004A2128001D39212784B740DF27F
:10010300087485F2E47845F2201203020286E4784B
:1001130046F2121392501C75F002EE12131EE0FE0B
:10012300A3E04E600E784612131AE0543FF0E20447
:10013300F280DFE47853F2781EE2FF7853E2FED3D5
:100143009F400302027875F002EE12131EE0FEA335
:10015300E0FF78471213A44E70030202787847E257
:100163000830E603020270785312131AC083C08268
:10017300E04480FFA3E0D082D083CFF0A3EFF0125E
:100183001411E4FCFD784E12092A78527401F2E44A
:100193007846F212139250757853E26E6067784690
:1001A30012131A12139D4E60647849E2FC08E2FDB3
:1001B300EC20E6517847121375504A784EE2FB085B
:1001C300E2F908E2FA08E2CBF8C0007849E2FE0857
:1001D300E2FFE4FCFDD000EB2FFFEA3EFEED39FD2C
:1001E300EC38FC784E12092A7852E204F27846126F
:1001F300131AC083C082E04480FFA3E0D082D0837F
:10020300CFF0A3EFF07846E204F2020196784EE2D3
:10021300FC08E2FD08E2FE08E2FFC00708E2FBE497
:10022300FAF9F8D007120879784E12092A784E089D
:1002330008E2FF08E27847CFF208EFF2E47846F2EB
:10024300121392502875F002EE12131E12139DEE34
:1002530030E7137847E24440FE08E2FF7846121382
:100263001AEEF0A3EFF07846E204F280D37853E27B
:1002730004F202013A7845E204F2E2C39402500325
:1002830002010B201203020342E47846F212139296
:10029300505575F002EE12131EE0FEA3E04E6047C8
:1002A3007846E2FF12131BC083C082E04480FDA3A3
:1002B300E0D082D083CDF0A3EDF075F002EF1213FE
:1002C3001EE054BFF0E204F2E2FF12131BE0FCA3B2
:1002D300E04C601375F002EF12131EE054BFF07888
:1002E30046E204F202029078467401F2781EE2FFBD
:1002F3007846E2F9C39F504775F002E912131E12C4
:10030300149F1213A41213E078451205FB5029120F
:100313001411EE20E722784BF208EFF27846E2144C
:10032300781EF27846E2FFC394C0501375F002EFD3
:1003330012131E12148980EB7846E204F280AD306A
:10034300120A781EE2C3940A5002C2122012030258
:1003530003EF2013181213FC7D15121332500E7D78
:100363002A12132A5007D213784D7405F220131B57
:100373001213FC7D2812133250111214587DCA1225
:1003830013325007D213784D7403F220131812134B
:10039300FC7DCD121332500E7D4412132A5007D226
:1003A30013784D7402F2201343D213E47846F21209
:1003B3001392503030132D75F002EE12131E1214E7
:1003C3009F1213A44E601D1214117D441213324068
:1003D3000C1214117D881213324002C2137846E2C4
:1003E30004F280CB301305784D7401F23012327869
:1003F3004DE2702D1213FC7D17121332500A1214A2
:10040300587D3912133240141213FC7D1712133224
:10041300500F1214587D881213325005784D740909
:10042300F230127C201379784DE2640960727846C9
:10043300740AF2121392506875F002EE12131E1230
:10044300149F1213A4FF7846E204F212131AE0FD7C
:10045300A3E07849CDF208EDF2EF4E604312141198
:10046300900273E0FCA3E0FD12137A502B7849E26B
:10047300FE08E2FF900275E0FCA3E0FD12137A5040
:10048300177846E224FEF2121392500C75F002EE36
:1004930012131E12148980EF7846E204F202043626
:1004A30030123DE47846F27846E2FFC394C0503000
:1004B30075F002EF12131EE0FEA3E04E701B121341
:1004C3001A74FF12148A784BE2FE08E2FF78461290
:1004D300131AEEF0A3EFF080077846E204F280C728
:1004E300201205784D74FFF2A213E433FF7841E242
:0F04F300FB08E2FA08E2F9EF12076D784DE2FF1D
:0105020022D6
:070F15007839EDF218EFF24C
:100F1C00C39411400122C211E4783AF2783AE2FF0C
:100F2C00C3940240030210E6C28EEF9400400312F9
:100F3C0011027A00793D12110D783CEFF220010775
:100F4C007F0A122CFF80F6C28E783CE2F47003020A
:020F5C00107C07
:100F5E007838E2FD12133F121405783FF2EF1214A7
:100F6E00433EF583E49308F230040718E254FEF290
:100F7E008006783FE24401F27840E2D394104003B9
:100F8E007401F27840E2700204F2ED12133F121473
:100F9E00613EAF82FE7D847C01121E5512133C24ED
:100FAE0082F582745B7A00793F1210F112133C12B3
:100FBE0014437A0079401210F1783DE278386010CF
:100FCE0012133E2402F582745A12138274C08014D6
:100FDE0012133E2402F582745A3EAF82FE74011241
:100FEE0013877480F21223E21211027A00793E12F4
:100FFE00110DAE072001077F0A122CFF80F6C28E5C
:10100E00AF06783CE2B50709783EE2FF18E26F6062
:10101E0005783C74FFF2783CE2F4605208E2704EC0
:10102E00783BF2781EE2FF783BE2FED39F503F758D
:10103E00F002EE12131EE0FEA3E04E603112133CDE
:10104E001213F2783BE2FD12146812148175F0024D
:10105E00ED12131EE0FCA3E0FD12137A4009783C5A
:0E106E0074FFF2D2118007783BE204F280B5E5
:10107C00783CE2F4603912133C1214617A00793D29
:10108C0012142D1223E212133C2401F582745A7AA5
:10109C0000793C12142D1223E2783DE260281213E1
:1010AC003C12149812138274C0F21223E28017308F
:1010BC0011047F0480027F03EF4440FF1226E07F7F
:1010CC0002122CA580147838E26410600D7838E296
:1010DC0004F2783AE204F2020F28783CE2F460035E
:0410EC00D38001C3E9
:1010F000223EAF82FE7BFE784FE4F20804F2122318
:10110000E2227F01122CA57F011226E0227BFE78CD
:0711100039E2FD1200862206
:1018DA00D2109003F4E07835F2A3E008F2A3E0080E
:1018EA00F218E214F2E225E0F2C39411500608E27B
:1018FA009410400A7F01122CA57F430219E978351A
:10190A00E224FE603914604D14604A14700302190F
:10191A009B1470030219B2240560030219D37836A6
:10192A00E2B4020A7E7A7F00122BD20219D37837E8
:10193A00E2B401047D0180027D007F10800F7836B9
:10194A00E2FF08E2B401047D0180027D00120F1556
:10195A0092100219D3783612133E1214057834F213
:10196A0008E2B4030718E24401F280067834E2542C
:10197A00FEF274822FF582745B121A0312133E244C
:10198A0082F582745B3EAF82FE7BFE7A00793480F8
:10199A00327836E2FF04F2EF12133F1219F1783669
:1019AA0012133E1219F18021783612133E12144393
:1019BA00121A0312133E1214433EAF82FE7BFE7AC2
:1019CA000079371214331223E23010167835E2C345
:1019DA00940350047F0180027F02122CA57F021219
:0719EA0026E07F0102246AE0
:1019F1002401F582745A3EAF82FE7D017C00121EE5
:101A010055223EAF82FE7D017C00121E55783622A2
:102C8C00781E1213D84002E4F2ED6004EE4480FE8C
:092C9C00121318EEF0A3EFF02270
:101F35007835743FF208E4F2087420F208E4F2C23E
:101F4500AF780CE6FE24FD6007240260030220063C
:101F5500EF543FFD7835E2F208E24DF2EE6403609E
:101F650009E4FD7FBB7E7F122C8CC2107837E2FE20
:101F750008E2FF4E70030220067835E25EFE08E2B5
:101F85005F4E602F7838E2B4000C18E2B420077871
:101F95000CE66403601520100A1212F0EEF0A3EFB0
:101FA500F08008E4FD7F44FE122C8C7D017F447E89
:101FB50000802620100B7D017F447E00122C8C8032
:101FC500081212F0EEF0A3EFF07838E26401700227
:101FD50018E26008E4FD7F44FE122C8C7837E2FE9F
:101FE50008E2FF7835E25EFC08E25F4C6003D380CF
:101FF50001C39210EEC3137937F3EF1309F3021FF0
:0320050071D2AFE6
:0120080022B5
:1029D40041025F0041026000C11441025D004102F6
:0229E4005E0093
:10256F007859E2FB08E2F908E2FA08E2CBF87F00BB
:10257F007E6C7DDC7C021208797B02E4FAF9F802AA
:10258F000879E47BFF7AFFF9F8120879E42212093F
:10259F000B8EB58FB453ACFC22E0FF04F0745D2FAB
:1025AF00F582E43400F5832290025EE0FF90025D35
:1025BF00E0C39F22FAF9F8D3020919900260E0FFF5
:0525CF0090025FE02214
:10001E00C2AF1225CAC39FFFE49400FEC3E49FFF44
:10002E0074019EFED3EF9402EE94005003D2AF22E1
:04003E00D2AFC32258
:030083000226341E
:10263400C0E0C083C082C0D075D018E5D230E01E9F
:1026440090025DE02401FFE433FEA3E06F7001EE2D
:10265400600990025D1225A8E5D3F053D2FEE5D2BD
:1026640030E11E53D2FD1225CA6F6013A3E004F0BB
:10267400745D2FF582E43401F583E0F5D38002D252
:0A26840014D0D0D082D083D0E03211
:102B7B00AD0712001E5002C322C2AFAF0590025F19
:102B8B00E0FE04F0745D2EF582E43401F583EFF082
:0C2B9B00301405C21443D202D2AFD32282
:102CBC001225B77002C322C2AF90025E1225A8E0A3
:072CCC0012076DD2AFD32205
:050013001225B7FF22D9
:1020C800785912092A7859E2FC08E2FD08E2FE086C
:1020D800E2FF780F12092A75A44175D43F75E240D2
:1020E80075E30175E50C75D21012256F1225917BE9
:1020F800011225C3401012256F12090B8EB58FB43B
:1021080043AC0302216C12256F1225917B04122522
:10211800C3401112256F7B0412258A12259D43ACFA
:102128000102216C12256F1225917B0C1225C378B0
:1021380059E2FB08E2F908E2FA08E2CBF87F007EF0
:102148006C7DDC7C02400E122585E47B0C12258B0D
:1021580012259D800F122585E47B3012258B1225D0
:102168009D43AC0243D20243AC40D21443E702225F
:100046007846E22401F218E23400F27848E224010C
:10005600F218E23400F2228D828C83E4937849F21E
:10006600E2F4224401FE7845E2FC08E2FDD394FF67
:0D007600EC9E22C2AF43EF02AA06A90722AA
:102BD200A2AF92131200797B019003F9EBF0A3EA02
:102BE200F0A3E9F0758F0375B7A575B7F1E4120785
:0A2BF2006DF58FA21392AF53EFFDB3
:012BFC0022B6
:0A23E200784CEBF208EAF208E9F289
:1023EC00A2AF92131200799003F97401F0A3EAF0F2
:1023FC00A3E9F0E4A3F0A3F0784FE2FE08E2FF902B
:10240C0003FCE0FCA3E0FDC39FEC9E5049784CE23A
:10241C00FB08E2FA08E2F98D828C83120740FF7800
:10242C0011F6758F0175B7A575B7F19003F9E0FB3F
:10243C00A3E0FAA3E0F9EF12076DE4F58F9003FA2D
:10244C0075F0011208089003FDE004F070AA9003E7
:0D245C00FCE004F080A2A21392AF53EFFD4C
:012469002250
:0E1E55007843ECF208EDF27841EEF208EFF27D
:101E6300A2AF9212EE54FE7845F2E408F27E7C7F34
:101E73000008EEF208EFF2C2AF122BD27841E2FE75
:101E830008E2FF7845E2FC08E2FDC39FEC9E500D9B
:101E930012005D6003121F1D12004680DFD37844D9
:101EA300E2940018E2940040101200467844E224C1
:101EB300FFF218E234FFF280E47841E21200695045
:101EC3000D12005D6003121F1D12004680EB784166
:101ED300E254FEFE7F00122BD27841E254FE794792
:101EE300F3E409F37845747CF2087400F2747C120D
:101EF3000069502112005D60177847E2FE08E2FF97
:101F03007BFE7A007949784FE4F20804F21223E267
:091F130012004680D8A21292AF20
:101F1C00227847E2FE08E2FF7BFE7A007949784F8F
:091F2C00E4F20804F21223E2229F
:105A0000FFFFFFFFFFFFFFFFFFFFFFFFFFFFFFFFA6
:105A1000FFFFFFFFFFFFFFFFFFFFFFFFFFFFFFFF96
:105A2000FFFFFFFFFFFFFFFFFFFFFFFFFFFFFFFF86
:105A3000FFFFFFFFFFFFFFFFFFFFFFFFFFFFFFFF76
:042D2E0001F400505C
:102B4E007BFE7A007934784FE4F20804F222900387
:102B5E00F5E0FFD39400229003F5E024FF22E47801
:0D2B6E0016F208F222F2C2AF9003F4E0224A
:102C4A00E4F5A953B2FCF5B943B9800000000000CD
:102C5A0000000043B9C0E5B930E5FB43B61075A9D9
:022C6A00032243
:0E2D1C0075A401E4F5A6F5E175E240C280223F
:102B2100122B7424F860080470201222C4801B7ECA
:102B31005B7F8D7D017C00121E557E5B7F8D7B014D
:0D2B41007A0379F5122B541223E2D2AF2251
:102BFD009003F4E024FE6010146013146016240397
:102C0D007017122B65928422122B65928522122B3E
:0A2C1D0065928622122B6592872231
:102009009003F6E075F00AA4FDACF09003F5E075D5
:10201900F064A42DFFE5F03CFE9003F7E07C002F6F
:102029007835F2EC3E18F2E2FE08E2FF7D0A12076B
:10203900A17834EEF208EF122B7314601214603396
:1020490014604014604D2404706B122B6C806690F0
:102059005B84E493FE740193FF7835E22FFF18E265
:102069003EFE905B867401932F7817F2E4933E1835
:10207900F28042122B6C7E5B7F841220C17E5B7FD3
:10208900848021122B6C7E5B7F861220C17E5B7F50
:10209900868011122B6C7E5B7F887D02FC121E5597
:1020A9007E5B7F887BFE7A007934784FE4F208748E
:0720B90002F21223E2D2AF94
:0820C000227D02FC121E5522D4
:101D64009003F5E014FF7401A807088002C333D878
:101D7400FC7834122B7314603C14606814700302F2
:101D84001E1924036003021E4A905B8BE493F460E3
:101D9400077E5B7F8B121E4D9003F5E0FF905B8AFC
:101DA400E4936F7003021E4A7E5B7F8A121E4D7E8F
:101DB4005B7F8A8052122B5C5003021E4AEF940907
:101DC4004003021E4A7834E2F4FF905B8BE493FEF6
:101DD4005FF2E2FFEE6F606E7E5B7F8B7BFE7A00CC
:101DE40079348029122B5C405DEF75F00AA4FFF072
:101DF400905B8CE4936F604E7E5B7F8C7D017C00F6
:101E0400121E557E5B7F8C7B017A0379F5122B546D
:101E14001223E28031D2AF122B5C402AEF94095096
:101E240025905B8BE493F4FF7834E2FE5F6017E562
:101E3400905E60047F1180027F109003F5E014250A
:081E4400E02FFF121F35D2AFA1
:091E4C00227D017C00121E5522CA
:1022C400E47834F27834E2FFC39411501BEF7F00BA
:1022D40025E0FEEF2400F582745A3EAF82FE122BF5
:1022E400D27834E204F280DC7E5B7F841223447E65
:1022F4005B7F861223447E5B7F887BFF7A2D793057
:10230400784FE4F2087402F21223E2E47834F27EA5
:102314005B7F8A7BFE7A007934784FF20804F212EC
:1023240023E27834740AF27E5B7F8C122B4E1223E4
:10233400E278347401F27E5B7F8D122B4E0223E22D
:102344007BFF7A2D792E784FE4F2087402F212237F
:02235400E22283
:10050300020712E86480F8E933E83360110460F00D
:10051300ED33EC337009E8FCE9FDEAFEEBFF22045E
:1005230060DED3EB9FEA9EE99DE8C2E78CF0C2F759
:1005330095F0400CE8CCF8E9CDF9EACEFAEBCFFB25
:100543001206DD85D0F05804700320D5B3E804709B
:10055300075002B2D502071C92D5EC0460F7E4CC35
:10056300C0E0C398F8603B94186008400DD0E0FBEE
:100573000206F4E4FBFAC9FC8028E830E406E4C987
:10058300FBE4CAFCE830E305E4C9CACBFCE8540742
:100593006010F8C3E913F9EA13FAEB13FBEC13FC4D
:1005A300D8F130F52FC3E49CFCEF9BFFEE9AFEEDF0
:1005B30099FDD0E0FBEF4E4D4C701222DB03020796
:1005C30019EC2CFCEF33FFEE33FEED33FDED30E79A
:1005D300EB0206F4EF2BFFEE3AFEED39FDD0E0FB24
:1005E30050130BBB000302071CED13FDEE13FEEFCC
:0805F30013FFEC13FC0206F4F7
:1005FB0074F8CC6480CCC86480C8F582046043C3B3
:10060B00EB9FF5F0EA9E42F0E99D42F0E89C45F045
:10061B0060305018E5825FFFE582F42B5582FB506A
:10062B00210ABA001D09B90019088016E5825BFB87
:10063B00E582F42F5582FF50090EBE00050DBD005B
:10064B00010CC3EB9FF5F0EA9E42F0E99D42F0E806
:0D065B009C45F06007CC4820E701B3EC227D
:1006680075F020800E75F010800575F0087D007E0D
:10067800007F003392D530D50312090BEC334010BC
:10068800EF33FFEE33FEED33FDEC33FCD5F0ED2216
:0E069800E5F0247EA2D513CC92E7CDCEFF2252
:1006A600EDD2E7CD33EC3392D524814006E4FFFE4C
:1006B600FDFC22FCE4CFCECDCC24E0501174FF80AB
:1006C600EDC3CC13CCCD13CDCE13CECF13CF047048
:0706D600F030D5DE02090B34
:1006DD00E9D2E7C933E833F892D5EDD2E7CD33EC63
:0706ED0033FC5002B2D522DC
:1006F400EC30E7100FBF000C0EBE00080DBD000467
:100704000BEB6014A2D5EB13FCED92E7FD2274FF12
:10071400FCFDFEFF22E480F8A2D574FF13FC7D806B
:03072400E480EF7F
:0300000002235682
:0C235600787FE4F6D8FD7581A202239D7B
:10072700BB010689828A83E0225002E722BBFE02D0
:09073700E32289828A83E4932203
:10074000BB010CE58229F582E5833AF583E022506E
:1007500006E92582F8E622BBFE06E92582F8E222B8
:0D076000E58229F582E5833AF583E49322D2
:10076D00BB010689828A83F0225002F722BBFE016B
:02077D00F32265
:10077F00F8BB010DE58229F582E5833AF583E8F0B0
:10078F00225006E92582C8F622BBFE05E92582C85C
:02079F00F22244
:1007A100EF8DF0A4A8F0CF8CF0A428CE8DF0A42E6C
:0207B100FE2226
:1007B300BC000BBE0029EF8DF084FFADF022E4CC2A
:1007C300F875F008EF2FFFEE33FEEC33FCEE9DECF3
:1007D300984005FCEE9DFE0FD5F0E9E4CEFD22ED39
:1007E300F8F5F0EE8420D21CFEADF075F008EF2F83
:1007F300FFED33FD4007985006D5F0F222C398FD74
:050803000FD5F0EA2210
:10080800C5F0F8A3E028F0C5F0F8E582158270027B
:060818001583E038F02218
:10081E00BB010A89828A83F0E5F0A3F0225006F725
:0F082E0009A7F01922BBFE06F3E5F009F3192222
:10083D0075F008758200EF2FFFEE33FECD33CDCC72
:10084D0033CCC58233C5829BED9AEC99E5829840F5
:10085D000CF582EE9BFEED9AFDEC99FC0FD5F0D6D2
:10086D00E4CEFBE4CDFAE4CCF9A88222B800C1B9FC
:10087D000059BA002DEC8BF084CFCECDFCE5F0CB3A
:10088D00F97818EF2FFFEE33FEED33FDEC33FCEB73
:10089D0033FB10D703994004EB99FB0FD8E5E4F92E
:1008AD00FA227818EF2FFFEE33FEED33FDEC33FC1B
:1008BD00C933C910D7059BE99A4007EC9BFCE99A0F
:1008CD00F90FD8E0E4C9FAE4CCFB2275F010EF2F54
:1008DD00FFEE33FEED33FDCC33CCC833C810D70754
:1008ED009BEC9AE899400AED9BFDEC9AFCE899F88F
:0E08FD000FD5F0DAE4CDFBE4CCFAE4C8F92222
:0E090B00C3E49FFFE49EFEE49DFDE49CFC22FD
:10091900EB9FF5F0EA9E42F0E99D42F0E89C45F034
:0109290022AB
:0C092A00ECF208EDF208EEF208EFF22209
:0C093600A42582F582E5F03583F58322CC
:10094200EF4E6012EF60010EEDBB010B89828A83CC
:10095200F0A3DFFCDEFA2289F05007F709DFFCA9D9
:0C096200F022BBFEFCF309DFFCA9F02230
:10236200021117E493A3F8E493A34003F68001F269
:1023720008DFF48029E493A3F85407240CC8C3337C
:10238200C4540F4420C8834004F456800146F6DF4B
:10239200E4800B01020408102040809029ACE47E06
:1023A200019360BCA3FF543F30E509541FFEE49340
:1023B200A360010ECF54C025E060A840B8E493A307
:1023C200FAE493A3F8E493A3C8C582C8CAC583CA32
:1023D200F0A3C8C582C8CAC583CADFE9DEE780BEEA
:0129E60000F0
:00000001FF
